:060000000A128A11472AD2
:10000800F000030EF100031383120B1816200C18CE
:100018003E200B19BD208C18E620710E8300F00ECF
:10002800700E090003138312061E2620061D2E20BB
:1000380020080311023A031923200B100800861D1B
:100048003620080003138312A00A2008043C031971
:10005800A001080003138312B10A3108033C0319F5
:10006800B101080003138312D30A5308033C031990
:10007800D3010800031383120B308F00DC308E008D
:100088000C105020A10AA11C0800A101A30A2308F2
:100098003C3C031959200800A20A05168516A21C23
:1000A800080005128512A2010800A301A40A240869
:1000B8000A3C0319A4010319A50A2508063C0319DB
:1000C800A501031968200800A60A26080A3C031996
:1000D800A6010319A70A2708023C0319742008007F
:1000E8002608043C031979200800A401A501A601EB
:1000F800A701A80A28080A3C0319A8010319A90A94
:10010800BA01BB012A08BA072B08BA07BB0A3B0881
:100118000A3C031D88283A081422BC00BD01BE0110
:100128002808BD072908BD07BE0A3E080A3C031D6A
:1001380096283D08BC020319A2280800A801A80AAD
:10014800A901AA0A2A080A3C0319AA010319AB0A39
:100158002B08013C0319B128A1282A08033C0319DC
:10016800B628B028A801A80AA901AA01AA0AAB01C1
:10017800B52803138312FA3081000B110810881078
:10018800081188112C18E028AC18DA282C19D42862
:10019800AC19CE282F0887008815AC112C1508003B
:1001A8003008870008152C11AC1408002D088700AA
:1001B8008814AC102C1408002E08870008142C1082
:1001C800AC1508008C10D40A5408143C031D080010
:1001D80051183729D401C9034908FF3C03193B309A
:1001E8000319C90003191921FA20080003138312FF
:1001F8004908D000B401B5010A30D002B50A031885
:100208000029B5030A30D0070A2108000130D002BE
:10021800B40A03180A29B4030130D0073408350793
:100228003207330703193321080003138312CC0361
:100238004C08CF00B201B3010A30CF02B30A031849
:100248002029B3030A30CF072A2108000130CF0242
:10025800B20A03182A29B2030130CF070800511443
:10026800091488130800D20A52083C3C03193D2996
:10027800F9281211D101D401C901D001CC01CF0153
:04028800D2013C293A
:100400008A018A140F3982073F3406345B344F3433
:1004100066346D347D3407347F346F3477347C3404
:1004200039345E34793471348A018A140F39820781
:10043000003420341D3420341F3420341F34203441
:1004400020341F3420341F3420348A018A140F3999
:100450008207003401340234033404340534063492
:100460000734083409340A340B340C348A018A14F2
:100470000F39820700340134023403340434053464
:1004800006340734083409340A340B340C346B2234
:10049000D622DD22EA22FA22BD22CC2203138312C5
:1004A00003138316161E1616031383122008031156
:1004B000003A03190A2B20080311013A03197A2B79
:1004C00020080311023A0319EA2B20080311033A0A
:1004D0000319972C502A03178316880189010313E7
:1004E00083160614861406158615061685018701DF
:1004F000880109108113950115149514151595158A
:10050000151603138312850186018701880189016D
:10051000A001B101A101A201A301A401A501A601AD
:10052000A701A8010930A800A9010230A900AA0169
:10053000AA0AAB01AC01AD01B201B301B401B5012E
:10054000B601B701B801B901BA01BB01C001C101CF
:10055000C201C301C401C501C601C701C801C90167
:10056000C90ACA01CB01CC01CD01CE01CF01D00116
:10057000D101D201D301D4010800031383160C1456
:100580008C14031383128B170B178B150B108B1600
:100590000B110C108C1008000313831616169615F9
:1005A00016150313831206080B1008000313831695
:1005B0000F140F178F160F120800031383168112E2
:1005C000811101158114011403138312FA30810083
:1005D0000B1108000313831290109011901610163F
:1005E00010131014031383120B308F00DC308E00B5
:1005F0000C10080003138316C330920091010313FB
:1006000083129214121412179216121692151211C6
:100610008C10080003138312101C1014051485108D
:100620000511851105138513AD0126080022AD00C3
:1006300027080022AE0024080022AF00250800226F
:10064000B00031080311013A03192C2B31080311B2
:10065000023A0319532B502A03138316161203135D
:100660008312101085170513061C4B2B861C4F2B6D
:10067000AD0126080022AD0027080022AE002408A4
:100680000022AF0025080022B00031080311023A11
:100690000319532B2C2B061C4B2BAB242C2B861C09
:1006A0004F2BBC242C2B0313831616120313831217
:1006B000101005178513061C722B861C762BAD01B6
:1006C00026080022AD0027080022AE0024080022E0
:1006D000AF0025080022B00031080311003A0319C9
:1006E0000A2B532B061C722BCF24532B861C762BE4
:1006F000E324532B03138312101C101485140510CC
:100700000511851105138513AD0128080022AD00E0
:1007100029080022AE002A080022AF002B08002280
:10072000B00031080311013A03199C2B3108031161
:10073000023A0319C32B502A03138316161203130C
:100740008312101005178513061CBB2B861CBF2BAC
:10075000AD0128080022AD0029080022AE002A08B9
:100760000022AF002B080022B00031080311023A2A
:100770000319C32B9C2B061CBB2BF6249C2B861C1D
:10078000BF2B1F259C2B03138316161203138312F2
:10079000101085170513061CE22B861CE62BAD01F5
:1007A00028080022AD0029080022AE002A080022F5
:1007B000AF002B080022B00031080311003A0319E2
:1007C0007A2BC32B061CE22BEC26C32B861CE62BB4
:1007D0000727C32B03138312101C10145308031193
:1007E000013A0319162453080311023A0319252468
:1007F000051505108510851105138513AD01320807
:100800000022AD0033080022AE0034080022AF0001
:1008100035080022B00031080311013A03192A2CCF
:1008200031080311023A0319622C502A0313831270
:1008300034083507320733070319242C03138312B6
:10084000121D12155110881708000313831212117C
:100850008813080003138316161203138312121150
:100860000313831285170513061C4B2C861C572C6B
:10087000AD0132080022AD0033080022AE0034087A
:100880000022AF0035080022B00031080311023AFF
:100890000319622C2A2C061C4B2CC90A4908CA00D1
:1008A0003C3C0319C9010319CA0192272A2C861C52
:1008B000572CC9034908FF3C03193B300319C900F1
:1008C000AB272A2C03138316161203138312051762
:1008D0008513061C802C861C8C2CAD01320800224E
:1008E000AD0033080022AE0034080022AF00350806
:1008F0000022B00031080311003A0319EA2B622CE0
:10090000061C802CCC0A4C08CD00643C0319CC0199
:100910000319CD01C427622C861C8C2CCC034C08F7
:10092000FF3C031963300319CC00DD27622C8515C9
:1009300005108510051105138513AD013608002239
:10094000AD0037080022AE0038080022AF00390899
:100950000022B000502AA40A24080A3C0319A4016A
:100960000319A50A2508063C0319A5010319B92492
:100970000800A401A5010800A403BF240800031176
:10098000FF302402031D0800A5030930A400031151
:10099000FF302502031D08000530A5000800A60A47
:1009A00026080A3C0319A6010319A70A2708023CD6
:1009B0000319DB2408002608043C0319E02408007E
:1009C000A601A7010800A603E62408000311FF30D2
:1009D0002602031D0800A7030330A6000311FF3001
:1009E0002702031D08000230A7000800A80A2808F3
:1009F0000A3C0319A8010319A90ABA01BB012A0874
:100A0000BA072B08BA07BB0A3B080A3C031D012D95
:100A10003A081422BC00BD01BE012808BD07290800
:100A2000BD07BE0A3E080A3C031D0F2D3D08BC024F
:100A300003191B250800A801A80AA9010800C6017E
:100A4000C7012A08C6072B08C607C70A47080A3C79
:100A5000031D232D46083622C400C501C8012808FD
:100A6000C5072908C507C80A48080A3C031D312DD7
:100A700044080311013A0319752544080311023A89
:100A80000319932544080311033A0319B1254408B7
:100A90000311043A0319CF2544080311053A031939
:100AA000ED2544080311063A03190B2644080311E7
:100AB000073A0319292644080311083A031947265F
:100AC00044080311093A03196526440803110A3A38
:100AD00003198326440803110B3A0319A12644087D
:100AE00003110C3A0319BF260800C5030313831230
:100AF000A801A9014508C5000A30C502A90A0318C2
:100B00007C2DA9030A30C507862508000130C502DF
:100B1000A80A0318862DA8030130C507280829074D
:100B20000319DD260800C50303138312A801A901D8
:100B30004508C5000A30C502A90A03189A2DA90361
:100B40000A30C507A42508000130C502A80A031809
:100B5000A42DA8030130C507280829070319E72693
:100B60000800C50303138312A801A9014508C500A5
:100B70000A30C502A90A0318B82DA9030A30C5070F
:100B8000C22508000130C502A80A0318C22DA80317
:100B90000130C507280829070319DD260800C50309
:100BA00003138312A801A9014508C5000A30C50234
:100BB000A90A0318D62DA9030A30C507E0250800A5
:100BC0000130C502A80A0318E02DA8030130C507AB
:100BD000280829070319E2260800C5030313831216
:100BE000A801A9014508C5000A30C502A90A0318D1
:100BF000F42DA9030A30C507FE2508000130C502FF
:100C0000A80A0318FE2DA8030130C50728082907E4
:100C10000319DD260800C50303138312A801A901E7
:100C20004508C5000A30C502A90A0318122EA903F7
:100C30000A30C5071C2608000130C502A80A03189F
:100C40001C2EA8030130C507280829070319E2262E
:100C50000800C50303138312A801A9014508C500B4
:100C60000A30C502A90A0318302EA9030A30C507A5
:100C70003A2608000130C502A80A03183A2EA80334
:100C80000130C507280829070319DD260800C50318
:100C900003138312A801A9014508C5000A30C50243
:100CA000A90A03184E2EA9030A30C50758260800C2
:100CB0000130C502A80A0318582EA8030130C50741
:100CC000280829070319DD260800C503031383122A
:100CD000A801A9014508C5000A30C502A90A0318E0
:100CE0006C2EA9030A30C507762608000130C5021C
:100CF000A80A0318762EA8030130C507280829077B
:100D00000319E2260800C50303138312A801A901F1
:100D10004508C5000A30C502A90A03188A2EA9038E
:100D20000A30C507942608000130C502A80A031836
:100D3000942EA8030130C507280829070319DD26CA
:100D40000800C50303138312A801A9014508C500C3
:100D50000A30C502A90A0318A82EA9030A30C5073C
:100D6000B22608000130C502A80A0318B22EA80353
:100D70000130C507280829070319E2260800C50322
:100D800003138312A801A9014508C5000A30C50252
:100D9000A90A0318C62EA9030A30C507D0260800E1
:100DA0000130C502A80A0318D02EA8030130C507D8
:100DB000280829070319DD2608000330A90001309F
:100DC000A80008000330A9000030A8000800023085
:100DD000A9000830A8000800A801A80AA901AA0AC9
:100DE0002A080A3C0319AA010319AB0A2B08013C83
:100DF0000319FB2608002A08033C031900270800F2
:100E0000A801A80AA901AA01AA0AAB010800C00109
:100E1000C1012A08C0072B08C007C10A41080A3CC3
:100E2000031D0B2FC00340082522BF003F080311FC
:100E3000003A0319562F3F0803110B3A03195B2F91
:100E40003F0803110A3A0319602F3F080311093ABA
:100E50000319652F3F080311083A03196A2F3F0849
:100E60000311073A03196F2F3F080311063A0319BC
:100E7000742F3F080311053A0319792F3F08031116
:100E8000043A03197E2F3F080311033A0319832FF5
:100E90003F080311023A0319882F3F080311013A52
:100EA00003198D2FA801A80AA90108000130AB0081
:100EB0000230AA00522F0130AB000130AA00522F9D
:100EC0000130AB000030AA00522F0030AB000930D7
:100ED000AA00522F0030AB000830AA00522F003079
:100EE000AB000730AA00522F0030AB000630AA003A
:100EF000522F0030AB000530AA00522F0030AB005B
:100F00000430AA00522F0030AB000330AA00522F49
:100F10000030AB000230AA00522F0030AB0001308D
:100F2000AA00522F03138312B401B5014A08CA0064
:100F30000A30CA02B50A0318982FB5030A30CA0747
:100F4000A22708000130CA02B40A0318A22FB40372
:100F50000130CA070800031383124908CB00B4010B
:100F6000B5010A30CB02B50A0318B12FB5030A3018
:100F7000CB07BB2708000130CB02B40A0318BB2FF4
:100F8000B4030130CB07080003138312B201B3018D
:100F90004D08CD000A30CD02B30A0318CA2FB3039F
:100FA0000A30CD07D42708000130CD02B20A031859
:100FB000D42FB2030130CD070800031383124C086D
:100FC000CE00B201B3010A30CE02B30A0318E32FF8
:100FD000B3030A30CE07ED2708000130CE02B20A73
:0C0FE0000318ED2FB2030130CE0708000B
:04400E00D420FF3F7C
:00000001FF
