:060000000A128A11472AD2
:10000800F000030EF100031383120B1816200C18CE
:100018003E200B19BD208C18E620710E8300F00ECF
:10002800700E090003138312061E2620061D2E20BB
:1000380020080311023A031923200B100800861D1B
:100048003620080003138312A00A2008033C031972
:10005800A001080003138312B10A3108033C0319F5
:10006800B101080003138312D30A5308033C031990
:10007800D3010800031383120B308F00DC308E008D
:100088000C105020A10AA11C0800A101A30A2308F2
:100098003C3C031959200800A20A05168516A21C23
:1000A800080005128512A2010800A301A40A240869
:1000B8000A3C0319A4010319A50A2508063C0319DB
:1000C800A501031968200800A60A26080A3C031996
:1000D800A6010319A70A2708023C0319742008007F
:1000E8002608043C031979200800A401A501A601EB
:1000F800A701A80A28080A3C0319A8010319A90A94
:10010800BA01BB012A08BA072B08BA07BB0A3B0881
:100118000A3C031D88283A081422BC00BD01BE0110
:100128002808BD072908BD07BE0A3E080A3C031D6A
:1001380096283D08BC020319A2280800A801A80AAD
:10014800A901AA0A2A080A3C0319AA010319AB0A39
:100158002B08013C0319B128A1282A08033C0319DC
:10016800B628B028A801A80AA901AA01AA0AAB01C1
:10017800B52803138312FA3081000B110810881078
:10018800081188112C18E028AC18DA282C19D42862
:10019800AC19CE282F0887008815AC112C1508003B
:1001A8003008870008152C11AC1408002D088700AA
:1001B8008814AC102C1408002E08870008142C1082
:1001C800AC1508008C10D40A5408143C031D080010
:1001D80051183829D401C9034908FF3C03193B3099
:1001E8000319C90003191921FA20080003138312FF
:1001F8004908D000B401B5010A30D002B50A031885
:100208000029B5030A30D0070A2108000130D002BE
:10021800B40A03180A29B4030130D0073408350793
:100228003207330703193321080003138312CC0361
:100238004C08CF00B201B3010A30CF02B30A031849
:100248002029B3030A30CF072A2108000130CF0242
:10025800B20A03182A29B2030130CF070800511443
:100268005514091485110800D401D20A52083C3CDF
:1002780003193F29F92812118901D301D101D401A9
:0C028800C901D001CC01CF01D2013E29F8
:100400008A018A140F3982073F3406345B344F3433
:1004100066346D347D3407347F346F3477347C3404
:1004200039345E34793471348A018A140F39820781
:10043000003420341D3420341F3420341F34203441
:1004400020341F3420341F3420348A018A140F3999
:100450008207003401340234033404340534063492
:100460000734083409340A340B340C348A018A14F2
:100470000F39820700340134023403340434053464
:1004800006340734083409340A340B340C34662239
:10049000D222D922E622F622B922C82203138312DD
:1004A00003138316161E1616031383122008031156
:1004B000003A0319062B20080311013A0319752B82
:1004C00020080311023A0319E42B502A031783165C
:1004D00088018901031383160614861406158615F0
:1004E00006168501870188010910811395011514ED
:1004F0009514151595151516951603138312850178
:100500008601870188018901A001B101A101A20131
:10051000A301A401A501A601A701A8010430A80018
:10052000A9010030A900AA01AA0AAB01AC01AD01E2
:10053000B201B301B401B501B601B701B801B90107
:10054000BA01BB01C001C101C201C301C401C5019F
:10055000C601C701C801C901CA01CB01CC01CD0147
:10056000CE01CF01D001D101D201D301D401D501F7
:100570000800031383160C148C14031383128B17B7
:100580000B178B150B108B160B110C108C10080011
:1005900003138316161696151615031383120608F1
:1005A0000B100800031383160F140F178F160F126A
:1005B000080003138316811281110115811401149F
:1005C00003138312FA3081000B1108000313831206
:1005D000901090119016101610131014031383121C
:1005E0000B308F00DC308E000C10080003138316D4
:1005F000C330920091010313831292141214121744
:1006000092161216921512118C1008000313831201
:10061000101C101405148510051105138513AD0168
:1006200026080022AD0027080022AE002408002280
:10063000AF0025080022B00031080311013A031968
:10064000272B31080311023A03194E2B502A0313AA
:100650008316161203138312101085170513061C38
:10066000462B861C4A2BAD0126080022AD00270828
:100670000022AE0024080022AF0025080022B000AE
:1006800031080311023A03194E2B272B061C462B67
:10069000A224272B861C4A2BB324272B0313831653
:1006A000161203138312101005178513061C6D2BE9
:1006B000861C712BAD0126080022AD002708002200
:1006C000AE0024080022AF0025080022B000310847
:1006D0000311003A0319062B4E2B061C6D2BC62462
:1006E0004E2B861C712BDA244E2B03138312101C05
:1006F000101485140510051105138513AD01280884
:100700000022AD0029080022AE002A080022AF0016
:100710002B080022B00031080311013A0319962B6F
:1007200031080311023A0319BD2B502A0313831613
:10073000161203138312101005178513061CB52B10
:10074000861CB92BAD0128080022AD002908002223
:10075000AE002A080022AF002B080022B0003108AA
:100760000311023A0319BD2B962B061CB52BED2461
:10077000962B861CB92B1625962B0313831616125F
:1007800003138312101085170513061CDC2B861C1F
:10079000E02BAD0128080022AD0029080022AE00A0
:1007A0002A080022AF002B080022B00031080311F4
:1007B000003A0319752BBD2B061CDC2BE326BD2B41
:1007C000861CE02BFE26BD2B03138312101C101475
:1007D00053080311013A03191D2453080311023A67
:1007E00003192C245518112405150510851005131F
:1007F0008513AD0132080022AD0033080022AE009F
:1008000034080022AF0035080022B000310803117F
:10081000013A0319312C31080311023A03196B2CE8
:10082000502A061C14240800031383121211851188
:1008300055105110D30189010800031383123408A5
:1008400035073207330703192B2C03138312121DAC
:10085000121551108515080003138312121185110A
:1008600008000313831616120313831212110313C5
:100870008312D301890185170513061C542C861C8D
:10088000602CAD0132080022AD0033080022AE001A
:1008900034080022AF0035080022B00031080311EF
:1008A000023A03196B2C312C061C542CC90A490836
:1008B000CA003C3C0319C9010319CA018927312C1C
:1008C000861C602CC9034908FF3C03193B300319FF
:1008D000C900A227312C03138316161203138312A7
:1008E00005178513D3018901061C8B2C861C972CB8
:1008F000AD0132080022AD0033080022AE003408FA
:100900000022AF0035080022B00031080311003A80
:100910000319E42B6B2C061C8B2CCC0A4C08CD0045
:10092000643C0319CC010319CD01BB276B2C861C39
:10093000972CCC034C08FF3C031963300319CC00FF
:10094000D4276B2CA40A24080A3C0319A401031918
:10095000A50A2508063C0319A5010319B0240800BF
:10096000A401A5010800A403B62408000311FF3068
:100970002402031D0800A5030930A4000311FF3061
:100980002502031D08000530A5000800A60A260858
:100990000A3C0319A6010319A70A2708023C0319F8
:1009A000D22408002608043C0319D7240800A60115
:1009B000A7010800A603DD2408000311FF3026026A
:1009C000031D0800A7030330A6000311FF30270210
:1009D000031D08000230A7000800A80A28080A3CE6
:1009E0000319A8010319A90ABA01BB012A08BA0709
:1009F0002B08BA07BB0A3B080A3C031DF82C3A082F
:100A00001422BC00BD01BE012808BD072908BD078E
:100A1000BE0A3E080A3C031D062D3D08BC02031910
:100A200012250800A801A80AA9010800C601C701EB
:100A30002A08C6072B08C607C70A47080A3C031D31
:100A40001A2D46083622C400C501C8012808C5076A
:100A50002908C507C80A48080A3C031D282D440870
:100A60000311013A03196C2544080311023A0319D2
:100A70008A2544080311033A0319A82544080311E1
:100A8000043A0319C62544080311053A0319E4255D
:100A900044080311063A0319022644080311073AD1
:100AA0000319202644080311083A03193E26440876
:100AB0000311093A03195C26440803110A3A031981
:100AC0007A26440803110B3A0319982644080311A7
:100AD0000C3A0319B6260800C50303138312A801B4
:100AE000A9014508C5000A30C502A90A0318732DDB
:100AF000A9030A30C5077D2508000130C502A80AF0
:100B000003187D2DA8030130C507280829070319FC
:100B1000D4260800C50303138312A801A9014508C0
:100B2000C5000A30C502A90A0318912DA9030A308D
:100B3000C5079B2508000130C502A80A03189B2D94
:100B4000A8030130C507280829070319DE26080075
:100B5000C50303138312A801A9014508C5000A3083
:100B6000C502A90A0318AF2DA9030A30C507B92584
:100B700008000130C502A80A0318B92DA8030130E6
:100B8000C507280829070319D4260800C50303133D
:100B90008312A801A9014508C5000A30C502A90AA7
:100BA0000318CD2DA9030A30C507D7250800013049
:100BB000C502A80A0318D72DA8030130C5072808C5
:100BC00029070319D9260800C50303138312A801B6
:100BD000A9014508C5000A30C502A90A0318EB2D72
:100BE000A9030A30C507F52508000130C502A80A87
:100BF0000318F52DA8030130C50728082907031994
:100C0000D4260800C50303138312A801A9014508CF
:100C1000C5000A30C502A90A0318092EA9030A3023
:100C2000C507132608000130C502A80A0318132EB1
:100C3000A8030130C507280829070319D926080089
:100C4000C50303138312A801A9014508C5000A3092
:100C5000C502A90A0318272EA9030A30C5073126A1
:100C600008000130C502A80A0318312EA80301307C
:100C7000C507280829070319D4260800C50303134C
:100C80008312A801A9014508C5000A30C502A90AB6
:100C90000318452EA9030A30C5074F260800013066
:100CA000C502A80A03184F2EA8030130C50728085B
:100CB00029070319D4260800C50303138312A801CA
:100CC000A9014508C5000A30C502A90A0318632E08
:100CD000A9030A30C5076D2608000130C502A80A1D
:100CE00003186D2EA8030130C5072808290703192A
:100CF000D9260800C50303138312A801A9014508DA
:100D0000C5000A30C502A90A0318812EA9030A30BA
:100D1000C5078B2608000130C502A80A03188B2ED0
:100D2000A8030130C507280829070319D42608009D
:100D3000C50303138312A801A9014508C5000A30A1
:100D4000C502A90A03189F2EA9030A30C507A926C0
:100D500008000130C502A80A0318A92EA803013013
:100D6000C507280829070319D9260800C503031356
:100D70008312A801A9014508C5000A30C502A90AC5
:100D80000318BD2EA9030A30C507C7260800013085
:100D9000C502A80A0318C72EA8030130C5072808F2
:100DA00029070319D42608000330A9000130A80040
:100DB00008000330A9000030A80008000230A90094
:100DC0000830A8000800A801A80AA901AA0A2A0850
:100DD0000A3C0319AA010319AB0A2B08013C0319A9
:100DE000F22608002A08033C0319F7260800A80188
:100DF000A80AA901AA01AA0AAB010800C001C10101
:100E00002A08C0072B08C007C10A41080A3C031D75
:100E1000022FC00340082522BF003F080311003AFB
:100E200003194D2F3F0803110B3A0319522F3F08A6
:100E300003110A3A0319572F3F080311093A0319FE
:100E40005C2F3F080311083A0319612F3F08031173
:100E5000073A0319662F3F080311063A03196B2F4F
:100E60003F080311053A0319702F3F080311043A94
:100E70000319752F3F080311033A03197A2F3F080E
:100E80000311023A03197F2F3F080311013A031996
:100E9000842FA801A80AA90108000130AB00023084
:100EA000AA00492F0130AB000130AA00492F0130C0
:100EB000AB000030AA00492F0030AB000930AA0077
:100EC000492F0030AB000830AA00492F0030AB009A
:100ED0000730AA00492F0030AB000630AA00492F86
:100EE0000030AB000530AA00492F0030AB000430C1
:100EF000AA00492F0030AB000330AA00492F003070
:100F0000AB000230AA00492F0030AB000130AA002C
:100F1000492F03138312B401B5014A08CA000A30ED
:100F2000CA02B50A03188F2FB5030A30CA079927DA
:100F300008000130CA02B40A0318992FB403013023
:100F4000CA070800031383124908CB00B401B50196
:100F50000A30CB02B50A0318A82FB5030A30CB0715
:100F6000B22708000130CB02B40A0318B22FB40331
:100F70000130CB07080003138312B201B3014D08FF
:100F8000CD000A30CD02B30A0318C12FB3030A30D3
:100F9000CD07CB2708000130CD02B20A0318CB2FB2
:100FA000B2030130CD070800031383124C08CE00B2
:100FB000B201B3010A30CE02B30A0318DA2FB30329
:100FC0000A30CE07E42708000130CE02B20A031827
:0A0FD000E42FB2030130CE07080041
:04400E00D420FF3F7C
:00000001FF
